:100C7800414C41524D204B5552554C554D55005302
:100C8800494652453A2000534946524520444F4769
:100C9800525500414C41524D20414B544946004762
:100CA8005556454E4C494B2049484C414C4900410A
:100CB8004C41524D20504153494600484154414C03
:080CC800492053494652450042
:100DAC0002080001010C31010D32010E35010F3822
:10080000E4F519C285C286C287D2B6D2B77F381244
:100810000D9C7F01120D9C7F10120D9C7F0C120D00
:100820009C7F80120D9C7BFF7A0C7978120D4B7F98
:10083000F47E01120D747F01120D9C120D45C285CC
:10084000120D70C3E50B9404E50A94005024120DB8
:1008500097E50B6401450A7003851910E50B6402E6
:10086000450A7003851911E50B6403450A70038579
:100870001912E50B6404450A6003020ADC7F64FE7A
:10088000120D74120D94120B118F19120DBD120D51
:1008900070E519642A6003020ACB7FC8FE120D744A
:1008A000E50C65106003020AB4E50D6511600302F2
:1008B0000AB4E50E65126003020AB4E50F65136021
:1008C00003020AB47F01120D9C7BFF7A0C798F1210
:1008D0000D4B7FC87E00120D747F01120D9C7BFFB3
:1008E0007A0C799B120D4BC3E509941EE5086480D0
:1008F00094805020D285C2B67F2C7E01120D74D216
:10090000B6C2857F2C7E01120D740509E50970D7EA
:10091000050880D37510787511787512787513787D
:10092000E4F508F50920B31220B20FD285D286D2A1
:10093000877FC87E00120D7480EB7F01120D9C7BB7
:10094000FF7A0C79A7120D4B7FF47E01120D740211
:100950000AA7C3E5099432E5086480948040030245
:100960000ADC120D45C285C286C287D2B67F327EAE
:1009700000120D74C3E50B9404E50A9400502B1289
:100980000D97E50B6401450A7003851910E50B64AA
:1009900002450A7003851911E50B6403450A7003CB
:1009A0008519127F327E00120D74E50B6404450A2E
:1009B0006003020A757F64FE120D74120D94120B0F
:1009C000118F19120DBD120D70E519642A60030212
:1009D0000A737FC8FE120D74E50C65107042E50DB8
:1009E0006511703CE50E65127036E50F65137030C9
:1009F0007F01120D9C7BFF7A0C798F120D4B7FC803
:100A00007E00120D747F01120D9C7BFF7A0C79B76A
:100A1000120D4BC285C286C287D2B6120D7080FB02
:100A2000E4F508F5097F01120D9C7BFF7A0C79A78C
:100A3000120D4BC3E509942CE50864809481503570
:100A4000D285D286D287C2B7759850758920758DA8
:100A5000FDD28E7599313099FDC2997F2C7E01129D
:100A60000D74C285C286C287D2B77F2C7E01120D5B
:100A70007480C08032D285D286D287C2B6120D7001
:100A8000120B118F19120DBD120D700509E50970B9
:100A9000020508D3E50B9404E50A94005009E51912
:100AA000642360030209657F01120D9CE4F50AF5D9
:100AB0000B0209527F01120D9C7BFF7A0C79C31245
:100AC0000D4B7FC87E00120D7480007F01120D9CBB
:100AD000E4F50AF50BF508F50902083BD285120D7D
:100AE00070120B118F19120DBD120D70D3E50B94FE
:100AF00004E50A94005009E5196423600302083EE6
:100B00007F01120D9CE4F50AF50BF508F5090208C2
:010B10003BA9
:100B1100E4FF7590FEAE90EE64EE700A7F31050B36
:100B2100E50B7002050AAE90EE64DE700A7F3205B5
:100B31000BE50B7002050AAE90EE64BE700A7F33BE
:100B4100050BE50B7002050A7590FDAE90EE64EDA4
:100B5100700A7F34050BE50B7002050AAE90EE6456
:100B6100DD700A7F35050BE50B7002050AAE90EECC
:100B710064BD700A7F36050BE50B7002050A75909E
:100B8100FBAE90EE64EB700A7F37050BE50B70024C
:100B9100050AAE90EE64DB700A7F38050BE50B7039
:100BA10002050AAE90EE64BB700A7F39050BE50BB6
:100BB1007002050A7590F7AE90EE64E7700A7F2A1D
:100BC100050BE50B7002050AAE90EE64D7700A7F43
:100BD10030050BE50B7002050AAE90EE64B7700AA2
:0A0BE1007F23050BE50B7002050AE7
:010BEB0022E7
:060D16008B148A158916FA
:100D1C00E4F517F518F517F518AB14AA15A91685EF
:100D2C001882851783120CE9FF600D120DBD051892
:080D3C00E51870E5051780E1E0
:010D4400228C
:100DBD008FA0D2B4D2B57F0A7E00120D74C2B522B7
:080D9400851913E50B2488FF0B
:100D9C008FA0C2B4D2B57F0A7E00120D74C2B522E8
:060D45007BFF7A0C7987A8
:100D4B008B1A8A1B891CAB1AAA1BA91C120CD0600C
:100D5B0013051CE51C7002051B14F9120CD0FF12B5
:050D6B000DBD80E22235
:040D70007F647E001E
:100D7400E4FDFCC3ED9FEC9E5015E4FAFB0BBB00B5
:0F0D8400010ABA03F8BBE8F50DBD00010C80E4CD
:010D9300223D
:03000000020BEC04
:0C0BEC00787FE4F6D8FD75811C020C3304
:100CD000BB010689828A83E0225002E722BBFE0222
:090CE000E32289828A83E4932255
:100CE900BB010CE58229F582E5833AF583E02250C0
:100CF90006E92582F8E622BBFE06E92582F8E2220A
:0D0D0900E58229F582E5833AF583E4932223
:100BF800020800E493A3F8E493A34003F68001F20B
:100C080008DFF48029E493A3F85407240CC8C333FD
:100C1800C4540F4420C8834004F456800146F6DFCC
:100C2800E4800B0102040810204080900DACE47EA3
:100C3800019360BCA3FF543F30E509541FFEE493C1
:100C4800A360010ECF54C025E060A840B8E493A388
:100C5800FAE493A3F8E493A3C8C582C8CAC583CAB3
:100C6800F0A3C8C582C8CAC583CADFE9DEE780BE6B
:010DBC000036
:00000001FF
